:020000040800F2
:1000000080060020C1010008C1060008A105000803
:10001000BD0600082D020008CB0E000800000000FD
:10002000000000000000000000000000E9080008D7
:10003000D102000800000000810700080D0A000836
:10004000DB010008DB010008DB010008DB01000820
:10005000DB010008DB010008DB010008DB01000810
:10006000DB010008DB010008DB010008DB01000800
:10007000DB010008DB010008DB010008DB010008F0
:10008000DB010008DB010008DB010008DB010008E0
:10009000DB010008DB010008DB010008DB010008D0
:1000A000DB010008DB010008DB010008DB010008C0
:1000B000DB010008DB010008DB010008DB010008B0
:1000C000DB010008DB010008DB010008DB010008A0
:1000D000DB010008C10C0008DB010008DB0100089F
:1000E000DB010008DB010008DB010008DB01000880
:1000F000DB010008DB010008DB010008DB01000870
:10010000DB010008DB010008DB010008DB0100085F
:10011000DB010008DB010008DB010008DB0100084F
:10012000DB010008DB010008DB010008DB0100083F
:10013000DB010008DB010008DB010008DB0100082F
:10014000DB010008DB010008DB010008DB0100081F
:10015000DB010008DB010008DB010008C50C00081A
:10016000DB010008DB010008DB010008DB010008FF
:10017000DB010008DB010008DB010008DB010008EF
:10018000DB010008DB010008DB010008DB010008DF
:10019000DB010008DB010008DB010008DB010008CF
:1001A000DB010008DB010008DB010008DFF80CD0F0
:1001B00000F018F8004800477D0F00088006002076
:1001C0000648804706480047FEE7FEE7FEE7FEE7F1
:1001D000FEE7FEE7FEE7FEE7FEE7FEE7710A00083E
:1001E000AD010008064C074D06E0E06840F0010351
:1001F00094E8070098471034AC42F6D3FFF7DAFFD3
:10020000BC0F0008DC0F000810B506480088642801
:1002100007DB0020034908804FF48051024800F0BA
:100220009AF910BD2C000020000C024000BFFEE730
:100230000246002000BF03E000231354431C98B281
:100240008842F9DB7047000010B50446A4F1310084
:10025000082835D2DFE800F0040A10161C22282EE8
:100260004FF48061184800F072F92AE04FF4806181
:10027000154800F06EF924E04FF40061124800F0D8
:1002800066F91EE04FF400610F4800F062F918E0D3
:100290004FF480510C4800F05AF912E04FF48051AD
:1002A000094800F056F90CE04FF40061074800F0EF
:1002B00050F906E04FF40061044800F048F900E00E
:1002C00000BF00BF10BD0000001C02400020024023
:1002D000704700000349086000BF0249096800290F
:1002E000FBD170477800002010B510480078012835
:1002F0001BD10F48007830280AD1C820FFF7EAFF49
:100300000B494978491C0A4A505CFFF79DFF02E0FF
:100310006420FFF7DFFF00200649088003490870CA
:10032000044801880248FFF783FF10BD3600002013
:100330007C0000203400002010B500F011F92BA142
:100340002C4800F0FEFD4FF47A70FFF7C3FF2A48F7
:1003500002882A492A4800F0CDFD2AA1254800F04C
:10036000F0FD4FF47A60FFF7B5FF23480288234978
:10037000234800F0BFFD2CA11E4800F0E2FD4FF421
:100380007A70FFF7A7FF1C4802881C491C4800F040
:10039000B1FD30A1174800F0D4FD4FF47A70FFF79B
:1003A00099FF154802881549154800F0A3FD2DA1B5
:1003B000104800F0C6FD4FF47A70FFF78BFF0E482F
:1003C00002880E490E4800F095FD3122294909485E
:1003D00000F07DFD4FF47A70FFF77CFF064802883D
:1003E0000649074800F086FD10BD000041540D0A83
:1003F0000000000000140140340000207C000020B8
:100400000010014041542B43574A41503D22776927
:100410006669206E616D65222C2277696669206BA2
:100420006579220D0A00000041542B434950535472
:100430004152543D22544350222C223138332E3223
:1004400033302E34302E3339222C363030320D0AF0
:100450000000000041542B4349504D4F44453D316D
:100460000D0A000041542B43495053454E440D0A98
:10047000000000003A000020F0B50A4600210023E9
:10048000002400BF3DE0012505FA01F3156805EAE7
:1004900003049C4234D105684F000326BE40B54397
:1004A000056015794E00B54006683543056015793D
:1004B000012D02D01579022D16D185684F00032633
:1004C000BE40B543856055794E00B54086683543DA
:1004D0008560456801268E40B5434560456896793C
:1004E0008E40B6B235434560C5684F000326BE4016
:1004F000B543C560D5794E00B540C6683543C56083
:10050000491C1029BFD3F0BDF0B5002300244D07CE
:10051000ED0E02FA05F3CE1000F1200555F8265035
:100520004E07F70E0F26BE40B543CF1000F1200650
:1005300046F82750CE1000F1200555F8265045EA20
:100540000304CE1000F1200545F82640F0BD41839C
:1005500070470183704742694A404261704700001A
:1005600010B504210A48FFF7F2FF6420FFF7B2FE3E
:1005700004210748FFF7EDFF4FF47A60FFF7AAFE6A
:10058000044802880449054800F0B4FC10BD00008E
:10059000000C0240340000207C00002000100140CC
:1005A00000BFFEE71CB50121052000F0EBF800209C
:1005B0008DF8040002208DF80700012000906946A4
:1005C0000548FFF759FF4FF4005000906946034873
:1005D000FFF752FF1CBD000000000240000802406F
:1005E00010B5FFF7DFFF10BD1CB501214FF4C4703B
:1005F00000F0C8F801208DF8040000208DF80600F6
:1006000001208DF8070002208DF8050040020090BF
:1006100069461348FFF730FF4FF4006000906946C9
:100620000F48FFF729FF4FF48050009069460C48AF
:10063000FFF722FF4FF48050009069460948FFF70A
:100640001BFF4FF40060009069460748FFF714FF56
:100650000420009069460348FFF70EFF1CBD000010
:10066000001C0240000C02400020024010B5FFF7C1
:10067000BBFF4FF480610E48FFF76BFF4FF4006142
:100680000B48FFF766FF4FF480510948FFF761FF01
:100690004FF480510748FFF75CFF4FF400610648B4
:1006A000FFF755FF04210348FFF753FF10BD00007B
:1006B000001C0240000C02400020024000BFFEE788
:1006C000704708B54FF4A06000F050F825208DF871
:1006D000000001208DF801008DF802008DF8030064
:1006E000684600F007F847208DF80000684600F0E3
:1006F00001F808BD70B5002100230F22C4781CB397
:10070000174C246804F4E064C4F5E064C4F30721E2
:10071000C1F10404E3B20A4144789C40E1B2847818
:10072000144021430C07210E0E4C057861550478C6
:1007300004F01F050124AC4005786D11AD0005F1F2
:10074000E025C5F8004109E0047804F01F05012404
:10075000AC40054D0678761145F8264070BD000086
:100760000CED00E000E400E080E100E0024901431C
:10077000024A1160704700000000FA050CED00E02D
:100780007047000029B1064A12680243044B1A6000
:1007900004E0034A12688243014B1A60704700006C
:1007A0003038024029B1064A12680243044B1A60ED
:1007B00004E0034A12688243014B1A60704700004C
:1007C00044380240F0B50021002200240225002612
:1007D0000223324F3F6807F00C0121B1042905D0F4
:1007E000082937D105E02E4F076036E02D4F07600E
:1007F00033E02A4F3F1F3F68C7F38056274F3F1F04
:100800003F6807F03F036EB1264FB7FBF3F7DFF801
:100810008CC0ACF1040CDCF800C0CCF3881C07FBE6
:100820000CF40CE01E4FB7FBF3F7DFF870C0ACF12F
:10083000040CDCF800C0CCF3881C07FB0CF4174F49
:100840003F1F3F68C7F301477F1C7D00B4FBF5F7EE
:10085000076002E0124F076000BF00BF0F4F3F6804
:1008600007F0F0010909104F7A5C0768D74047602C
:100870000A4F3F6807F4E051890A0B4F7A5C4768DA
:10088000D7408760054F3F6807F46041490B064F2A
:100890007A5C4768D740C760F0BD00000838024066
:1008A0000024F40040787D0114000020FFF744FD8F
:1008B000094801880948FFF7BBFC00200849088067
:1008C000084908700449088005E0FFF70DFDFFF7AF
:1008D0009BFC00F041F9F8E7340000207C00002088
:1008E0003800002036000020704700000CB50020C2
:1008F000019000904148006840F480303F49086012
:1009000000BF3E48006800F4003000900198401C91
:100910000190009818B90198B0F5A04FF1D137486F
:10092000006800F4003010B10120009001E00020C8
:1009300000900098012860D130484030006840F0B5
:1009400080502E49403108602D48006840F44040F6
:100950002B49086029480830006828490831086098
:100960000846006840F4004008600846006840F40B
:10097000A05008602348091F0860081F006840F065
:100980008070091F086000BF1C48006800F00070FC
:100990000028F9D01A48006840F4803018490860EF
:1009A00000BF1748406800F480300028F9D0144890
:1009B000006840F400301249086000BF10484068E9
:1009C00000F400300028F9D040F205700E490860AC
:1009D0000A480830006820F0030008490831086020
:1009E0000846006840F00200086000BF0348083075
:1009F000006800F00C000828F8D10CBD0038024057
:100A000000700040195A4007003C024010B500F049
:100A100097F811480068401C0F49086005281AD350
:100A2000002008600D480068401C0C4908600C4814
:100A30000088401C0A4908800A480088401C09496F
:100A4000088009480088401C07490880074800883A
:100A5000401C0649088010BD24000020280000200A
:100A60002C0000202E000020300000203800002044
:100A700010B51548006840F4700013490860134829
:100A8000006840F001001149086000200F4908315A
:100A900008600E4800680E4908400C4908600D487F
:100AA000091D0860081F006820F48020091F0860E5
:100AB000002006490C310860FFF718FF4FF0006076
:100AC00001498039086010BD88ED00E0003802401F
:100AD000FFFFF6FE1030002430B5164800684FF4D2
:100AE0007A72B0FBF2F1481EB0F1807F01D3012091
:100AF0001BE0481E4FF0E022506150170F220028E3
:100B000007DA13071D0E0C4B00F00F04241F1D55B0
:100B100003E013071C0E094B1C5400BF00204FF0CC
:100B2000E022906107201061002008B100BFFEE7BD
:100B300030BD00000000002018ED00E000E400E0FF
:100B40000448006820B103480068401E014908605D
:100B5000704700007800002010B50D48008842F66C
:100B6000E061884212DB002009490880022209491D
:100B7000094800F0ACF90A20FFF7ACFB0222054956
:100B8000054800F0A4F90A20FFF7A4FB10BD0000FF
:100B9000380000206B0000200014014000B587B031
:100BA00001214520FFF7EEFD01213020FFF7FAFD7E
:100BB00000208DF81A0001208DF81B0002208DF80E
:100BC00019008DF818000002059005A93748FFF7B5
:100BD00053FC02208DF818004002059005A9334807
:100BE000FFF74AFC07220A213048FFF78DFC072255
:100BF00009212E48FFF788FC02208DF818004020BC
:100C0000059005A92A48FFF737FC02208DF8180047
:100C10000002059005A92748FFF72EFC08220921AC
:100C20002448FFF771FC082206212148FFF76CFCDD
:100C30004FF4165001900020ADF80800ADF80A00FE
:100C4000ADF80C00ADF810000C20ADF80E0001A9B5
:100C5000194800F0C7F84FF4165001900020ADF885
:100C60000800ADF80A00ADF80C00ADF810000C203B
:100C7000ADF80E0001A9114800F0B4F8FFF721FD0E
:100C8000012240F225510C4800F087F8012240F281
:100C900025510A4800F081F80121074800F03AF890
:100CA0000121064800F036F807B000BD0000024000
:100CB00000080240001802400010014000140140EA
:100CC0007047000010B5002440F225510D4800F097
:100CD0003AF8B0B10B4800F0EFF804460A48008833
:100CE000B0F5007F02DD0020074908800120074998
:100CF0000870054802880088401C034B188004488F
:100D0000845410BD0014014034000020360000203F
:100D10007C00002021B1828942F40052828104E0EB
:100D200082894DF6FF731A40828170470246002087
:100D3000B1F5007F00D100BF13880B400BB101203B
:100D400000E00020704770B5024600240023002513
:100D5000002040F66A16B14200D100BFC1F342152F
:100D600001F01F03012606FA03F3012D02D1968933
:100D7000334006E0022D02D1168A334001E0968A04
:100D800033400C12012606FA04F41688344013B1DD
:100D90000CB1012000E0002070BDF0B50346002436
:100DA00000260025002040F66A17B94200D100BF96
:100DB0001846C1F3421401F01F06012707FA06F591
:100DC000012C01D10C3004E0022C01D1103000E0E4
:100DD00014301AB107682F43076002E00768AF4379
:100DE0000760F0BD2DE9FF4705460E460024A146E9
:100DF00000BFA046B08900B100BF2C8A24F4405443
:100E0000F08804432C82AC8941F20C608443B088A2
:100E100031890843718908430443AC81AC8A24F4C6
:100E20004074B0890443AC826846FFF7CBFC20488D
:100E3000854202D01F48854202D1DDF80C9001E0C6
:100E4000DDF80890A88900F4004040B109EBC90022
:100E500000EB091031684900B0FBF1F707E009EB3E
:100E6000C90000EB091031688900B0FBF1F764207C
:100E7000B7FBF0F004012009642101FB1078A88978
:100E800000F4004040B1322000EBC800B0FBF1F0AC
:100E900000F00700044308E0322000EB0810642152
:100EA000B0FBF1F000F00F0004432C81BDE8FF8798
:100EB000001001400014014001468888C0F308007A
:100EC0007047C1F308028280704700BFFEE72DE93A
:100ED000F04107460C461546002606E03046721CD7
:100EE00096B2215C384600F01DF8AE42F6DBBDE854
:100EF000F08100002DE9F04107460D46164600241A
:100F000007E0295D384600F00DF800202855601CE8
:100F100084B2B442F5DB002001490880BDE8F081CD
:100F20003400002070B504460D4629462046FFF7E0
:100F3000C8FF00BF80212046FFF7F8FE0028F9D047
:100F400070BD70B506460C46002500BF615D304699
:100F5000FFF7E8FF6D1C605D0028F7D170BD02E06F
:100F600008C8121F08C1002AFAD170477047002034
:100F700001E001C1121F002AFBD17047FFF70EFEEE
:100F8000FFF774FBFFF72CFBFFF7A6FD05A109484F
:100F9000FFF7D7FF08A10748FFF7D3FFFFF786FC4D
:100FA00000BFFEE753797374656D205374617274EA
:100FB0002E2E2E00001001400D0A0000DC0F00084C
:100FC000000000207C0000005E0F000858100008A0
:100FD0007C000020040600006E0F00080095BA0A8D
:100FE00000000000000000000102030406070809D9
:100FF00000000000010203040102030406070809BF
:1010000000000000000000000000000000000001DF
:10101000000000000000102F00044D51545404C083
:10102000007800093531373231323025360006324A
:101030003132383138003469565356315949416B91
:1010400053442763394E32C000D000E00020020034
:08105000000000000000000098
:04000005080001AD41
:00000001FF
